{
  "contractName": "RailCoin",
  "abi": [
    {
      "constant": true,
      "inputs": [],
      "name": "totalSupply",
      "outputs": [
        {
          "name": "",
          "type": "uint256"
        }
      ],
      "payable": false,
      "stateMutability": "view",
      "type": "function"
    },
    {
      "inputs": [],
      "payable": false,
      "stateMutability": "nonpayable",
      "type": "constructor"
    }
  ],
  "bytecode": "0x608060405234801561001057600080fd5b50620f4240600081905550609e806100296000396000f3fe608060405260043610603f576000357c0100000000000000000000000000000000000000000000000000000000900463ffffffff16806318160ddd146044575b600080fd5b348015604f57600080fd5b506056606c565b6040518082815260200191505060405180910390f35b6000548156fea165627a7a7230582030b0b2749eb2c27d0bcd5672d112617d677a1cd37231a7452d1855bd0141591f0029",
  "source": "pragma solidity ^0.5.0;\n\ncontract RailCoin {\n\t// Constructor\n\t// Set the total number of tokens\n\t// Read the total number of tokens\n\tuint256 public totalSupply;\n\n \t constructor() public {\n \t \t// ...\n\t\ttotalSupply = 1000000;\n\t}\n}\n",
  "sourcePath": "/Users/thomasgroh/Documents/dev/token_sale/contracts/RailCoin.sol",
  "compiler": {
    "name": "solc",
    "version": "0.5.0+commit.1d4f565a.Emscripten.clang"
  },
  "schemaVersion": "3.0.1",
  "updatedAt": "2019-01-28T02:47:58.192Z",
  "devdoc": {
    "methods": {}
  },
  "userdoc": {
    "methods": {}
  }
}